{
  "contractName": "doctorPage",
  "abi": [
    {
      "inputs": [],
      "stateMutability": "nonpayable",
      "type": "constructor"
    },
    {
      "inputs": [
        {
          "internalType": "address",
          "name": "",
          "type": "address"
        }
      ],
      "name": "insuranceProviders",
      "outputs": [
        {
          "internalType": "address",
          "name": "",
          "type": "address"
        }
      ],
      "stateMutability": "view",
      "type": "function",
      "constant": true
    },
    {
      "inputs": [
        {
          "internalType": "address",
          "name": "",
          "type": "address"
        },
        {
          "internalType": "uint256",
          "name": "",
          "type": "uint256"
        }
      ],
      "name": "patientDetails",
      "outputs": [
        {
          "internalType": "string",
          "name": "name",
          "type": "string"
        },
        {
          "internalType": "uint256",
          "name": "age",
          "type": "uint256"
        },
        {
          "internalType": "string",
          "name": "gender",
          "type": "string"
        },
        {
          "internalType": "address",
          "name": "insuranceProviderId",
          "type": "address"
        },
        {
          "internalType": "address",
          "name": "doctorId",
          "type": "address"
        },
        {
          "internalType": "uint256",
          "name": "time",
          "type": "uint256"
        }
      ],
      "stateMutability": "view",
      "type": "function",
      "constant": true
    },
    {
      "inputs": [
        {
          "internalType": "address",
          "name": "",
          "type": "address"
        },
        {
          "internalType": "uint256",
          "name": "",
          "type": "uint256"
        }
      ],
      "name": "patientMedicalState",
      "outputs": [
        {
          "internalType": "string",
          "name": "medicalState",
          "type": "string"
        },
        {
          "internalType": "address",
          "name": "doctorId",
          "type": "address"
        },
        {
          "internalType": "string",
          "name": "dateAdded",
          "type": "string"
        },
        {
          "internalType": "uint256",
          "name": "time",
          "type": "uint256"
        }
      ],
      "stateMutability": "view",
      "type": "function",
      "constant": true
    },
    {
      "inputs": [
        {
          "internalType": "address",
          "name": "",
          "type": "address"
        },
        {
          "internalType": "uint256",
          "name": "",
          "type": "uint256"
        }
      ],
      "name": "patientPrescription",
      "outputs": [
        {
          "internalType": "string",
          "name": "medicine",
          "type": "string"
        },
        {
          "internalType": "address",
          "name": "doctorId",
          "type": "address"
        },
        {
          "internalType": "string",
          "name": "advice",
          "type": "string"
        },
        {
          "internalType": "uint256",
          "name": "time",
          "type": "uint256"
        }
      ],
      "stateMutability": "view",
      "type": "function",
      "constant": true
    },
    {
      "inputs": [],
      "name": "getAdmin",
      "outputs": [
        {
          "internalType": "address",
          "name": "",
          "type": "address"
        }
      ],
      "stateMutability": "view",
      "type": "function",
      "constant": true
    },
    {
      "inputs": [
        {
          "internalType": "address",
          "name": "_pat",
          "type": "address"
        },
        {
          "internalType": "string",
          "name": "_medicalState",
          "type": "string"
        },
        {
          "internalType": "address",
          "name": "docID",
          "type": "address"
        },
        {
          "internalType": "string",
          "name": "_date",
          "type": "string"
        }
      ],
      "name": "setPatientMedicalState",
      "outputs": [],
      "stateMutability": "nonpayable",
      "type": "function"
    },
    {
      "inputs": [
        {
          "internalType": "address",
          "name": "pat",
          "type": "address"
        },
        {
          "internalType": "string",
          "name": "_medicine",
          "type": "string"
        },
        {
          "internalType": "address",
          "name": "_doctorId",
          "type": "address"
        },
        {
          "internalType": "string",
          "name": "_advice",
          "type": "string"
        }
      ],
      "name": "setDoctorPrescription",
      "outputs": [],
      "stateMutability": "nonpayable",
      "type": "function"
    },
    {
      "inputs": [
        {
          "internalType": "address",
          "name": "_patIID",
          "type": "address"
        },
        {
          "internalType": "string",
          "name": "_name",
          "type": "string"
        },
        {
          "internalType": "string",
          "name": "_gender",
          "type": "string"
        },
        {
          "internalType": "uint256",
          "name": "_age",
          "type": "uint256"
        },
        {
          "internalType": "address",
          "name": "_insId",
          "type": "address"
        },
        {
          "internalType": "address",
          "name": "_docId",
          "type": "address"
        }
      ],
      "name": "setPatientDetails",
      "outputs": [],
      "stateMutability": "nonpayable",
      "type": "function"
    },
    {
      "inputs": [
        {
          "internalType": "address",
          "name": "pat",
          "type": "address"
        }
      ],
      "name": "getPatientMedicalState",
      "outputs": [
        {
          "components": [
            {
              "internalType": "string",
              "name": "medicalState",
              "type": "string"
            },
            {
              "internalType": "address",
              "name": "doctorId",
              "type": "address"
            },
            {
              "internalType": "string",
              "name": "dateAdded",
              "type": "string"
            },
            {
              "internalType": "uint256",
              "name": "time",
              "type": "uint256"
            }
          ],
          "internalType": "struct doctorPage.doctorAddedMedicalState[]",
          "name": "",
          "type": "tuple[]"
        }
      ],
      "stateMutability": "view",
      "type": "function",
      "constant": true
    },
    {
      "inputs": [
        {
          "internalType": "address",
          "name": "pat",
          "type": "address"
        }
      ],
      "name": "getPatientPrescription",
      "outputs": [
        {
          "components": [
            {
              "internalType": "string",
              "name": "medicine",
              "type": "string"
            },
            {
              "internalType": "address",
              "name": "doctorId",
              "type": "address"
            },
            {
              "internalType": "string",
              "name": "advice",
              "type": "string"
            },
            {
              "internalType": "uint256",
              "name": "time",
              "type": "uint256"
            }
          ],
          "internalType": "struct doctorPage.doctorPrescription[]",
          "name": "",
          "type": "tuple[]"
        }
      ],
      "stateMutability": "view",
      "type": "function",
      "constant": true
    },
    {
      "inputs": [
        {
          "internalType": "address",
          "name": "_pat",
          "type": "address"
        }
      ],
      "name": "getPatientDetails",
      "outputs": [
        {
          "components": [
            {
              "internalType": "string",
              "name": "name",
              "type": "string"
            },
            {
              "internalType": "uint256",
              "name": "age",
              "type": "uint256"
            },
            {
              "internalType": "string",
              "name": "gender",
              "type": "string"
            },
            {
              "internalType": "address",
              "name": "insuranceProviderId",
              "type": "address"
            },
            {
              "internalType": "address",
              "name": "doctorId",
              "type": "address"
            },
            {
              "internalType": "uint256",
              "name": "time",
              "type": "uint256"
            }
          ],
          "internalType": "struct doctorPage.details[]",
          "name": "",
          "type": "tuple[]"
        }
      ],
      "stateMutability": "view",
      "type": "function",
      "constant": true
    },
    {
      "inputs": [
        {
          "internalType": "address",
          "name": "_pat",
          "type": "address"
        }
      ],
      "name": "validatePatient",
      "outputs": [
        {
          "internalType": "bool",
          "name": "",
          "type": "bool"
        }
      ],
      "stateMutability": "view",
      "type": "function",
      "constant": true
    },
    {
      "inputs": [
        {
          "internalType": "address",
          "name": "doc",
          "type": "address"
        }
      ],
      "name": "validateDoctor",
      "outputs": [
        {
          "internalType": "bool",
          "name": "",
          "type": "bool"
        }
      ],
      "stateMutability": "view",
      "type": "function",
      "constant": true
    },
    {
      "inputs": [
        {
          "internalType": "address",
          "name": "ins",
          "type": "address"
        }
      ],
      "name": "validateInsuranceProvider",
      "outputs": [
        {
          "internalType": "bool",
          "name": "",
          "type": "bool"
        }
      ],
      "stateMutability": "view",
      "type": "function",
      "constant": true
    }
  ],
  "bytecode": "0x608060405234801561001057600080fd5b50336000806101000a81548173ffffffffffffffffffffffffffffffffffffffff021916908373ffffffffffffffffffffffffffffffffffffffff1602179055506124f5806100606000396000f3fe608060405234801561001057600080fd5b50600436106100ea5760003560e01c8063717d7c1b1161008c578063a26ff75e11610066578063a26ff75e146102a0578063dff21a85146102bc578063e02f46ac146102ec578063efe2ccc11461031c576100ea565b8063717d7c1b1461021e57806377591d271461025157806387da432d1461026d576100ea565b8063482bce3c116100c8578063482bce3c1461017f5780634cce9821146101af5780636e9960c3146101cb5780636f674479146101e9576100ea565b80632b357702146100ef5780633ac888041461011f57806345ac6c651461014f575b600080fd5b61010960048036038101906101049190611947565b61034c565b604051610116919061198f565b60405180910390f35b61013960048036038101906101349190611947565b610428565b6040516101469190611b97565b60405180910390f35b61016960048036038101906101649190611947565b6106ff565b604051610176919061198f565b60405180910390f35b61019960048036038101906101949190611947565b6107bf565b6040516101a69190611bc8565b60405180910390f35b6101c960048036038101906101c49190611d44565b6107f2565b005b6101d3610999565b6040516101e09190611bc8565b60405180910390f35b61020360048036038101906101fe9190611e09565b6109c2565b60405161021596959493929190611ea2565b60405180910390f35b61023860048036038101906102339190611e09565b610b6b565b6040516102489493929190611f11565b60405180910390f35b61026b60048036038101906102669190611f64565b610ce8565b005b61028760048036038101906102829190611e09565b610e8a565b6040516102979493929190611f11565b60405180910390f35b6102ba60048036038101906102b59190611f64565b611007565b005b6102d660048036038101906102d19190611947565b6111a9565b6040516102e3919061212f565b60405180910390f35b61030660048036038101906103019190611947565b611480565b604051610313919061198f565b60405180910390f35b61033660048036038101906103319190611947565b6114fb565b60405161034391906122a3565b60405180910390f35b600081600073ffffffffffffffffffffffffffffffffffffffff16600460008373ffffffffffffffffffffffffffffffffffffffff1673ffffffffffffffffffffffffffffffffffffffff16815260200190815260200160002060009054906101000a900473ffffffffffffffffffffffffffffffffffffffff1673ffffffffffffffffffffffffffffffffffffffff16141561041e576040517f08c379a000000000000000000000000000000000000000000000000000000000815260040161041590612311565b60405180910390fd5b6001915050919050565b6060816000600360008373ffffffffffffffffffffffffffffffffffffffff1673ffffffffffffffffffffffffffffffffffffffff16815260200190815260200160002060008154811061047f5761047e612331565b5b9060005260206000209060060201600001805461049b9061238f565b905014156104de576040517f08c379a00000000000000000000000000000000000000000000000000000000081526004016104d59061240d565b60405180910390fd5b600260008473ffffffffffffffffffffffffffffffffffffffff1673ffffffffffffffffffffffffffffffffffffffff168152602001908152602001600020805480602002602001604051908101604052809291908181526020016000905b828210156106f357838290600052602060002090600402016040518060800160405290816000820180546105709061238f565b80601f016020809104026020016040519081016040528092919081815260200182805461059c9061238f565b80156105e95780601f106105be576101008083540402835291602001916105e9565b820191906000526020600020905b8154815290600101906020018083116105cc57829003601f168201915b505050505081526020016001820160009054906101000a900473ffffffffffffffffffffffffffffffffffffffff1673ffffffffffffffffffffffffffffffffffffffff1673ffffffffffffffffffffffffffffffffffffffff1681526020016002820180546106589061238f565b80601f01602080910402602001604051908101604052809291908181526020018280546106849061238f565b80156106d15780601f106106a6576101008083540402835291602001916106d1565b820191906000526020600020905b8154815290600101906020018083116106b457829003601f168201915b505050505081526020016003820154815250508152602001906001019061053d565b50505050915050919050565b6000816000600360008373ffffffffffffffffffffffffffffffffffffffff1673ffffffffffffffffffffffffffffffffffffffff16815260200190815260200160002060008154811061075657610755612331565b5b906000526020600020906006020160000180546107729061238f565b905014156107b5576040517f08c379a00000000000000000000000000000000000000000000000000000000081526004016107ac9061240d565b60405180910390fd5b6001915050919050565b60046020528060005260406000206000915054906101000a900473ffffffffffffffffffffffffffffffffffffffff1681565b600360008773ffffffffffffffffffffffffffffffffffffffff1673ffffffffffffffffffffffffffffffffffffffff1681526020019081526020016000206040518060c001604052808781526020018581526020018681526020018473ffffffffffffffffffffffffffffffffffffffff1681526020018373ffffffffffffffffffffffffffffffffffffffff16815260200142815250908060018154018082558091505060019003906000526020600020906006020160009091909190915060008201518160000190805190602001906108cf929190611832565b506020820151816001015560408201518160020190805190602001906108f6929190611832565b5060608201518160030160006101000a81548173ffffffffffffffffffffffffffffffffffffffff021916908373ffffffffffffffffffffffffffffffffffffffff16021790555060808201518160040160006101000a81548173ffffffffffffffffffffffffffffffffffffffff021916908373ffffffffffffffffffffffffffffffffffffffff16021790555060a082015181600501555050505050505050565b60008060009054906101000a900473ffffffffffffffffffffffffffffffffffffffff16905090565b600360205281600052604060002081815481106109de57600080fd5b906000526020600020906006020160009150915050806000018054610a029061238f565b80601f0160208091040260200160405190810160405280929190818152602001828054610a2e9061238f565b8015610a7b5780601f10610a5057610100808354040283529160200191610a7b565b820191906000526020600020905b815481529060010190602001808311610a5e57829003601f168201915b505050505090806001015490806002018054610a969061238f565b80601f0160208091040260200160405190810160405280929190818152602001828054610ac29061238f565b8015610b0f5780601f10610ae457610100808354040283529160200191610b0f565b820191906000526020600020905b815481529060010190602001808311610af257829003601f168201915b5050505050908060030160009054906101000a900473ffffffffffffffffffffffffffffffffffffffff16908060040160009054906101000a900473ffffffffffffffffffffffffffffffffffffffff16908060050154905086565b60016020528160005260406000208181548110610b8757600080fd5b906000526020600020906004020160009150915050806000018054610bab9061238f565b80601f0160208091040260200160405190810160405280929190818152602001828054610bd79061238f565b8015610c245780601f10610bf957610100808354040283529160200191610c24565b820191906000526020600020905b815481529060010190602001808311610c0757829003601f168201915b5050505050908060010160009054906101000a900473ffffffffffffffffffffffffffffffffffffffff1690806002018054610c5f9061238f565b80601f0160208091040260200160405190810160405280929190818152602001828054610c8b9061238f565b8015610cd85780601f10610cad57610100808354040283529160200191610cd8565b820191906000526020600020905b815481529060010190602001808311610cbb57829003601f168201915b5050505050908060030154905084565b818073ffffffffffffffffffffffffffffffffffffffff163373ffffffffffffffffffffffffffffffffffffffff1614610d57576040517f08c379a0000000000000000000000000000000000000000000000000000000008152600401610d4e9061249f565b60405180910390fd5b600260008673ffffffffffffffffffffffffffffffffffffffff1673ffffffffffffffffffffffffffffffffffffffff16815260200190815260200160002060405180608001604052808681526020018573ffffffffffffffffffffffffffffffffffffffff1681526020018481526020014281525090806001815401808255809150506001900390600052602060002090600402016000909190919091506000820151816000019080519060200190610e12929190611832565b5060208201518160010160006101000a81548173ffffffffffffffffffffffffffffffffffffffff021916908373ffffffffffffffffffffffffffffffffffffffff1602179055506040820151816002019080519060200190610e76929190611832565b506060820151816003015550505050505050565b60026020528160005260406000208181548110610ea657600080fd5b906000526020600020906004020160009150915050806000018054610eca9061238f565b80601f0160208091040260200160405190810160405280929190818152602001828054610ef69061238f565b8015610f435780601f10610f1857610100808354040283529160200191610f43565b820191906000526020600020905b815481529060010190602001808311610f2657829003601f168201915b5050505050908060010160009054906101000a900473ffffffffffffffffffffffffffffffffffffffff1690806002018054610f7e9061238f565b80601f0160208091040260200160405190810160405280929190818152602001828054610faa9061238f565b8015610ff75780601f10610fcc57610100808354040283529160200191610ff7565b820191906000526020600020905b815481529060010190602001808311610fda57829003601f168201915b5050505050908060030154905084565b818073ffffffffffffffffffffffffffffffffffffffff163373ffffffffffffffffffffffffffffffffffffffff1614611076576040517f08c379a000000000000000000000000000000000000000000000000000000000815260040161106d9061249f565b60405180910390fd5b600160008673ffffffffffffffffffffffffffffffffffffffff1673ffffffffffffffffffffffffffffffffffffffff16815260200190815260200160002060405180608001604052808681526020018573ffffffffffffffffffffffffffffffffffffffff1681526020018481526020014281525090806001815401808255809150506001900390600052602060002090600402016000909190919091506000820151816000019080519060200190611131929190611832565b5060208201518160010160006101000a81548173ffffffffffffffffffffffffffffffffffffffff021916908373ffffffffffffffffffffffffffffffffffffffff1602179055506040820151816002019080519060200190611195929190611832565b506060820151816003015550505050505050565b6060816000600360008373ffffffffffffffffffffffffffffffffffffffff1673ffffffffffffffffffffffffffffffffffffffff168152602001908152602001600020600081548110611200576111ff612331565b5b9060005260206000209060060201600001805461121c9061238f565b9050141561125f576040517f08c379a00000000000000000000000000000000000000000000000000000000081526004016112569061240d565b60405180910390fd5b600160008473ffffffffffffffffffffffffffffffffffffffff1673ffffffffffffffffffffffffffffffffffffffff168152602001908152602001600020805480602002602001604051908101604052809291908181526020016000905b8282101561147457838290600052602060002090600402016040518060800160405290816000820180546112f19061238f565b80601f016020809104026020016040519081016040528092919081815260200182805461131d9061238f565b801561136a5780601f1061133f5761010080835404028352916020019161136a565b820191906000526020600020905b81548152906001019060200180831161134d57829003601f168201915b505050505081526020016001820160009054906101000a900473ffffffffffffffffffffffffffffffffffffffff1673ffffffffffffffffffffffffffffffffffffffff1673ffffffffffffffffffffffffffffffffffffffff1681526020016002820180546113d99061238f565b80601f01602080910402602001604051908101604052809291908181526020018280546114059061238f565b80156114525780601f1061142757610100808354040283529160200191611452565b820191906000526020600020905b81548152906001019060200180831161143557829003601f168201915b50505050508152602001600382015481525050815260200190600101906112be565b50505050915050919050565b6000818073ffffffffffffffffffffffffffffffffffffffff163373ffffffffffffffffffffffffffffffffffffffff16146114f1576040517f08c379a00000000000000000000000000000000000000000000000000000000081526004016114e89061249f565b60405180910390fd5b6001915050919050565b6060816000600360008373ffffffffffffffffffffffffffffffffffffffff1673ffffffffffffffffffffffffffffffffffffffff16815260200190815260200160002060008154811061155257611551612331565b5b9060005260206000209060060201600001805461156e9061238f565b905014156115b1576040517f08c379a00000000000000000000000000000000000000000000000000000000081526004016115a89061240d565b60405180910390fd5b600360008473ffffffffffffffffffffffffffffffffffffffff1673ffffffffffffffffffffffffffffffffffffffff168152602001908152602001600020805480602002602001604051908101604052809291908181526020016000905b8282101561182657838290600052602060002090600602016040518060c00160405290816000820180546116439061238f565b80601f016020809104026020016040519081016040528092919081815260200182805461166f9061238f565b80156116bc5780601f10611691576101008083540402835291602001916116bc565b820191906000526020600020905b81548152906001019060200180831161169f57829003601f168201915b50505050508152602001600182015481526020016002820180546116df9061238f565b80601f016020809104026020016040519081016040528092919081815260200182805461170b9061238f565b80156117585780601f1061172d57610100808354040283529160200191611758565b820191906000526020600020905b81548152906001019060200180831161173b57829003601f168201915b505050505081526020016003820160009054906101000a900473ffffffffffffffffffffffffffffffffffffffff1673ffffffffffffffffffffffffffffffffffffffff1673ffffffffffffffffffffffffffffffffffffffff1681526020016004820160009054906101000a900473ffffffffffffffffffffffffffffffffffffffff1673ffffffffffffffffffffffffffffffffffffffff1673ffffffffffffffffffffffffffffffffffffffff16815260200160058201548152505081526020019060010190611610565b50505050915050919050565b82805461183e9061238f565b90600052602060002090601f01602090048101928261186057600085556118a7565b82601f1061187957805160ff19168380011785556118a7565b828001600101855582156118a7579182015b828111156118a657825182559160200191906001019061188b565b5b5090506118b491906118b8565b5090565b5b808211156118d15760008160009055506001016118b9565b5090565b6000604051905090565b600080fd5b600080fd5b600073ffffffffffffffffffffffffffffffffffffffff82169050919050565b6000611914826118e9565b9050919050565b61192481611909565b811461192f57600080fd5b50565b6000813590506119418161191b565b92915050565b60006020828403121561195d5761195c6118df565b5b600061196b84828501611932565b91505092915050565b60008115159050919050565b61198981611974565b82525050565b60006020820190506119a46000830184611980565b92915050565b600081519050919050565b600082825260208201905092915050565b6000819050602082019050919050565b600081519050919050565b600082825260208201905092915050565b60005b83811015611a105780820151818401526020810190506119f5565b83811115611a1f576000848401525b50505050565b6000601f19601f8301169050919050565b6000611a41826119d6565b611a4b81856119e1565b9350611a5b8185602086016119f2565b611a6481611a25565b840191505092915050565b611a7881611909565b82525050565b6000819050919050565b611a9181611a7e565b82525050565b60006080830160008301518482036000860152611ab48282611a36565b9150506020830151611ac96020860182611a6f565b5060408301518482036040860152611ae18282611a36565b9150506060830151611af66060860182611a88565b508091505092915050565b6000611b0d8383611a97565b905092915050565b6000602082019050919050565b6000611b2d826119aa565b611b3781856119b5565b935083602082028501611b49856119c6565b8060005b85811015611b855784840389528151611b668582611b01565b9450611b7183611b15565b925060208a01995050600181019050611b4d565b50829750879550505050505092915050565b60006020820190508181036000830152611bb18184611b22565b905092915050565b611bc281611909565b82525050565b6000602082019050611bdd6000830184611bb9565b92915050565b600080fd5b600080fd5b7f4e487b7100000000000000000000000000000000000000000000000000000000600052604160045260246000fd5b611c2582611a25565b810181811067ffffffffffffffff82111715611c4457611c43611bed565b5b80604052505050565b6000611c576118d5565b9050611c638282611c1c565b919050565b600067ffffffffffffffff821115611c8357611c82611bed565b5b611c8c82611a25565b9050602081019050919050565b82818337600083830152505050565b6000611cbb611cb684611c68565b611c4d565b905082815260208101848484011115611cd757611cd6611be8565b5b611ce2848285611c99565b509392505050565b600082601f830112611cff57611cfe611be3565b5b8135611d0f848260208601611ca8565b91505092915050565b611d2181611a7e565b8114611d2c57600080fd5b50565b600081359050611d3e81611d18565b92915050565b60008060008060008060c08789031215611d6157611d606118df565b5b6000611d6f89828a01611932565b965050602087013567ffffffffffffffff811115611d9057611d8f6118e4565b5b611d9c89828a01611cea565b955050604087013567ffffffffffffffff811115611dbd57611dbc6118e4565b5b611dc989828a01611cea565b9450506060611dda89828a01611d2f565b9350506080611deb89828a01611932565b92505060a0611dfc89828a01611932565b9150509295509295509295565b60008060408385031215611e2057611e1f6118df565b5b6000611e2e85828601611932565b9250506020611e3f85828601611d2f565b9150509250929050565b600082825260208201905092915050565b6000611e65826119d6565b611e6f8185611e49565b9350611e7f8185602086016119f2565b611e8881611a25565b840191505092915050565b611e9c81611a7e565b82525050565b600060c0820190508181036000830152611ebc8189611e5a565b9050611ecb6020830188611e93565b8181036040830152611edd8187611e5a565b9050611eec6060830186611bb9565b611ef96080830185611bb9565b611f0660a0830184611e93565b979650505050505050565b60006080820190508181036000830152611f2b8187611e5a565b9050611f3a6020830186611bb9565b8181036040830152611f4c8185611e5a565b9050611f5b6060830184611e93565b95945050505050565b60008060008060808587031215611f7e57611f7d6118df565b5b6000611f8c87828801611932565b945050602085013567ffffffffffffffff811115611fad57611fac6118e4565b5b611fb987828801611cea565b9350506040611fca87828801611932565b925050606085013567ffffffffffffffff811115611feb57611fea6118e4565b5b611ff787828801611cea565b91505092959194509250565b600081519050919050565b600082825260208201905092915050565b6000819050602082019050919050565b6000608083016000830151848203600086015261204c8282611a36565b91505060208301516120616020860182611a6f565b50604083015184820360408601526120798282611a36565b915050606083015161208e6060860182611a88565b508091505092915050565b60006120a5838361202f565b905092915050565b6000602082019050919050565b60006120c582612003565b6120cf818561200e565b9350836020820285016120e18561201f565b8060005b8581101561211d57848403895281516120fe8582612099565b9450612109836120ad565b925060208a019950506001810190506120e5565b50829750879550505050505092915050565b6000602082019050818103600083015261214981846120ba565b905092915050565b600081519050919050565b600082825260208201905092915050565b6000819050602082019050919050565b600060c083016000830151848203600086015261219a8282611a36565b91505060208301516121af6020860182611a88565b50604083015184820360408601526121c78282611a36565b91505060608301516121dc6060860182611a6f565b5060808301516121ef6080860182611a6f565b5060a083015161220260a0860182611a88565b508091505092915050565b6000612219838361217d565b905092915050565b6000602082019050919050565b600061223982612151565b612243818561215c565b9350836020820285016122558561216d565b8060005b858110156122915784840389528151612272858261220d565b945061227d83612221565b925060208a01995050600181019050612259565b50829750879550505050505092915050565b600060208201905081810360008301526122bd818461222e565b905092915050565b7f4e6f20696e737572616e63652070726f766964657220666f756e640000000000600082015250565b60006122fb601b83611e49565b9150612306826122c5565b602082019050919050565b6000602082019050818103600083015261232a816122ee565b9050919050565b7f4e487b7100000000000000000000000000000000000000000000000000000000600052603260045260246000fd5b7f4e487b7100000000000000000000000000000000000000000000000000000000600052602260045260246000fd5b600060028204905060018216806123a757607f821691505b602082108114156123bb576123ba612360565b5b50919050565b7f4e6f2070617469656e742064657461696c7320666f756e640000000000000000600082015250565b60006123f7601883611e49565b9150612402826123c1565b602082019050919050565b60006020820190508181036000830152612426816123ea565b9050919050565b7f4f6e6c79207265676973746572656420646f63746f72732061726520616c6c6f60008201527f77656420746f206d6f6469667920646174610000000000000000000000000000602082015250565b6000612489603283611e49565b91506124948261242d565b604082019050919050565b600060208201905081810360008301526124b88161247c565b905091905056fea26469706673582212203a1599458ddd5b1757dcea3eeed0311d6c5279a85743514d00739ecb48987be864736f6c634300080a0033",
  "immutableReferences": {},
  "source": "// SPDX-License-Identifier: MIT\r\npragma solidity >0.4.0 <0.9.0;\r\npragma experimental ABIEncoderV2;\r\n\r\ncontract doctorPage{\r\n    address admin;\r\n    constructor(){\r\n        admin = msg.sender;\r\n    }\r\n\r\n    function getAdmin() view public returns (address){\r\n        return admin;\r\n    }\r\n\r\n    struct doctorAddedMedicalState{\r\n        string medicalState;\r\n        address doctorId;\r\n        string dateAdded;\r\n        uint256 time;\r\n    }\r\n\r\n    struct doctorPrescription{\r\n        string medicine;\r\n        address doctorId;\r\n        string advice;\r\n        uint256 time;\r\n    }\r\n\r\n    struct details{\r\n        string name;\r\n        uint age;\r\n        string gender;\r\n        address insuranceProviderId;\r\n        address doctorId;\r\n        uint time;\r\n    }\r\n\r\n    modifier isDoctor(address doctor){\r\n        require(msg.sender == doctor, \"Only registered doctors are allowed to modify data\");\r\n        _;\r\n    }\r\n\r\n    modifier isPatient(address patient){\r\n        require(bytes(patientDetails[patient][0].name).length != 0, \"No patient details found\");\r\n        _;\r\n    }\r\n\r\n    modifier isInsuranceProvider(address insId){\r\n        require(insuranceProviders[insId] != address(0), \"No insurance provider found\");\r\n        _;\r\n    }\r\n\r\n    mapping (address => doctorAddedMedicalState[]) public patientMedicalState;\r\n    mapping (address => doctorPrescription[]) public patientPrescription;\r\n    mapping(address => details[]) public patientDetails;\r\n    mapping(address => address) public insuranceProviders;\r\n    \r\n    function setPatientMedicalState(address _pat, string memory _medicalState, address docID, string memory _date) public isDoctor(docID){\r\n        patientMedicalState[_pat].push(doctorAddedMedicalState({\r\n            medicalState: _medicalState,\r\n            time : block.timestamp,\r\n            doctorId: docID,\r\n            dateAdded: _date\r\n        }));\r\n    }\r\n\r\n    function setDoctorPrescription(address pat, string memory _medicine, address _doctorId, string memory _advice) public isDoctor(_doctorId){\r\n        patientPrescription[pat].push(doctorPrescription({\r\n            medicine: _medicine,\r\n            doctorId: _doctorId,\r\n            advice: _advice,\r\n            time: block.timestamp\r\n        }));\r\n    }\r\n\r\n    function setPatientDetails(address _patIID, string memory _name, string memory _gender, uint256 _age, address _insId, address _docId) public{\r\n        patientDetails[_patIID].push(details({\r\n            name: _name,\r\n            age: _age,\r\n            gender: _gender,\r\n            insuranceProviderId: _insId,\r\n            doctorId: _docId,\r\n            time: block.timestamp\r\n        }));\r\n    }\r\n\r\n    function getPatientMedicalState(address pat) view public isPatient(pat) returns(doctorAddedMedicalState[] memory){\r\n        return patientMedicalState[pat];\r\n    }\r\n\r\n    function getPatientPrescription(address pat) view public isPatient(pat) returns(doctorPrescription[] memory){\r\n        return patientPrescription[pat];\r\n    }\r\n\r\n    function getPatientDetails(address _pat) view public isPatient(_pat) returns(details[] memory){\r\n        return patientDetails[_pat];\r\n    }\r\n    \r\n    function validatePatient(address _pat) view public isPatient(_pat) returns(bool){\r\n        return true;\r\n    }\r\n\r\n    function validateDoctor(address doc) view public isDoctor(doc) returns(bool) {\r\n        return true;\r\n    }\r\n\r\n    function validateInsuranceProvider(address ins) view public isInsuranceProvider(ins) returns(bool){\r\n        return true;\r\n    }\r\n\r\n}",
  "sourcePath": "C:\\Users\\haman\\OneDrive\\Desktop\\sampl\\contracts\\doctorPage.sol",
  "compiler": {
    "name": "solc",
    "version": "0.8.10+commit.fc410830.Emscripten.clang"
  },
  "schemaVersion": "3.4.16",
  "updatedAt": "2024-02-26T19:35:57.923Z",
  "networkType": "ethereum",
  "devdoc": {
    "kind": "dev",
    "methods": {},
    "version": 1
  },
  "userdoc": {
    "kind": "user",
    "methods": {},
    "version": 1
  }
}