{
  "contractName": "doctorPage",
  "abi": [
    {
      "inputs": [],
      "stateMutability": "nonpayable",
      "type": "constructor"
    },
    {
      "inputs": [],
      "name": "getAdmin",
      "outputs": [
        {
          "internalType": "address",
          "name": "",
          "type": "address"
        }
      ],
      "stateMutability": "view",
      "type": "function",
      "constant": true
    },
    {
      "inputs": [
        {
          "internalType": "address",
          "name": "_pat",
          "type": "address"
        },
        {
          "internalType": "string",
          "name": "fname",
          "type": "string"
        },
        {
          "internalType": "string",
          "name": "ftype",
          "type": "string"
        },
        {
          "internalType": "string",
          "name": "fId",
          "type": "string"
        },
        {
          "internalType": "address",
          "name": "docID",
          "type": "address"
        },
        {
          "internalType": "string",
          "name": "date",
          "type": "string"
        }
      ],
      "name": "addPatientDetails",
      "outputs": [],
      "stateMutability": "nonpayable",
      "type": "function"
    },
    {
      "inputs": [
        {
          "internalType": "address",
          "name": "pat",
          "type": "address"
        }
      ],
      "name": "getDoctorAddedFiles",
      "outputs": [
        {
          "components": [
            {
              "internalType": "string",
              "name": "fileName",
              "type": "string"
            },
            {
              "internalType": "string",
              "name": "fileType",
              "type": "string"
            },
            {
              "internalType": "string",
              "name": "fileId",
              "type": "string"
            },
            {
              "internalType": "address",
              "name": "doctorId",
              "type": "address"
            },
            {
              "internalType": "string",
              "name": "dateAdded",
              "type": "string"
            }
          ],
          "internalType": "struct doctorPage.doctorAddedFiles[]",
          "name": "",
          "type": "tuple[]"
        }
      ],
      "stateMutability": "view",
      "type": "function",
      "constant": true
    },
    {
      "inputs": [
        {
          "internalType": "address",
          "name": "pat",
          "type": "address"
        },
        {
          "internalType": "string",
          "name": "_medicine",
          "type": "string"
        },
        {
          "internalType": "address",
          "name": "_doctorId",
          "type": "address"
        },
        {
          "internalType": "string",
          "name": "_advice",
          "type": "string"
        },
        {
          "internalType": "uint256",
          "name": "_time",
          "type": "uint256"
        }
      ],
      "name": "addDoctorPrescription",
      "outputs": [],
      "stateMutability": "nonpayable",
      "type": "function"
    },
    {
      "inputs": [
        {
          "internalType": "address",
          "name": "pat",
          "type": "address"
        }
      ],
      "name": "getPatientPrescription",
      "outputs": [
        {
          "components": [
            {
              "internalType": "string",
              "name": "medicine",
              "type": "string"
            },
            {
              "internalType": "address",
              "name": "doctorId",
              "type": "address"
            },
            {
              "internalType": "string",
              "name": "advice",
              "type": "string"
            },
            {
              "internalType": "uint256",
              "name": "time",
              "type": "uint256"
            }
          ],
          "internalType": "struct doctorPage.doctorPrescription[]",
          "name": "",
          "type": "tuple[]"
        }
      ],
      "stateMutability": "view",
      "type": "function",
      "constant": true
    }
  ],
  "bytecode": "0x608060405234801561001057600080fd5b50336000806101000a81548173ffffffffffffffffffffffffffffffffffffffff021916908373ffffffffffffffffffffffffffffffffffffffff16021790555061134b806100606000396000f3fe608060405234801561001057600080fd5b50600436106100575760003560e01c8063013ec41d1461005c5780633ac88804146100785780635d6a48e2146100a85780636e9960c3146100d8578063765dad56146100f6575b600080fd5b61007660048036038101906100719190610ca7565b610112565b005b610092600480360381019061008d9190610d5a565b6102b5565b60405161009f9190610f59565b60405180910390f35b6100c260048036038101906100bd9190610d5a565b6104d7565b6040516100cf91906110c8565b60405180910390f35b6100e0610813565b6040516100ed91906110f9565b60405180910390f35b610110600480360381019061010b9190611114565b61083c565b005b828073ffffffffffffffffffffffffffffffffffffffff163373ffffffffffffffffffffffffffffffffffffffff1614610181576040517f08c379a000000000000000000000000000000000000000000000000000000000815260040161017890611294565b60405180910390fd5b600260008773ffffffffffffffffffffffffffffffffffffffff1673ffffffffffffffffffffffffffffffffffffffff16815260200190815260200160002060405180608001604052808781526020018673ffffffffffffffffffffffffffffffffffffffff168152602001858152602001848152509080600181540180825580915050600190039060005260206000209060040201600090919091909150600082015181600001908051906020019061023c929190610a16565b5060208201518160010160006101000a81548173ffffffffffffffffffffffffffffffffffffffff021916908373ffffffffffffffffffffffffffffffffffffffff16021790555060408201518160020190805190602001906102a0929190610a16565b50606082015181600301555050505050505050565b6060600260008373ffffffffffffffffffffffffffffffffffffffff1673ffffffffffffffffffffffffffffffffffffffff168152602001908152602001600020805480602002602001604051908101604052809291908181526020016000905b828210156104cc5783829060005260206000209060040201604051806080016040529081600082018054610349906112e3565b80601f0160208091040260200160405190810160405280929190818152602001828054610375906112e3565b80156103c25780601f10610397576101008083540402835291602001916103c2565b820191906000526020600020905b8154815290600101906020018083116103a557829003601f168201915b505050505081526020016001820160009054906101000a900473ffffffffffffffffffffffffffffffffffffffff1673ffffffffffffffffffffffffffffffffffffffff1673ffffffffffffffffffffffffffffffffffffffff168152602001600282018054610431906112e3565b80601f016020809104026020016040519081016040528092919081815260200182805461045d906112e3565b80156104aa5780601f1061047f576101008083540402835291602001916104aa565b820191906000526020600020905b81548152906001019060200180831161048d57829003601f168201915b5050505050815260200160038201548152505081526020019060010190610316565b505050509050919050565b6060600160008373ffffffffffffffffffffffffffffffffffffffff1673ffffffffffffffffffffffffffffffffffffffff168152602001908152602001600020805480602002602001604051908101604052809291908181526020016000905b8282101561080857838290600052602060002090600502016040518060a001604052908160008201805461056b906112e3565b80601f0160208091040260200160405190810160405280929190818152602001828054610597906112e3565b80156105e45780601f106105b9576101008083540402835291602001916105e4565b820191906000526020600020905b8154815290600101906020018083116105c757829003601f168201915b505050505081526020016001820180546105fd906112e3565b80601f0160208091040260200160405190810160405280929190818152602001828054610629906112e3565b80156106765780601f1061064b57610100808354040283529160200191610676565b820191906000526020600020905b81548152906001019060200180831161065957829003601f168201915b5050505050815260200160028201805461068f906112e3565b80601f01602080910402602001604051908101604052809291908181526020018280546106bb906112e3565b80156107085780601f106106dd57610100808354040283529160200191610708565b820191906000526020600020905b8154815290600101906020018083116106eb57829003601f168201915b505050505081526020016003820160009054906101000a900473ffffffffffffffffffffffffffffffffffffffff1673ffffffffffffffffffffffffffffffffffffffff1673ffffffffffffffffffffffffffffffffffffffff168152602001600482018054610777906112e3565b80601f01602080910402602001604051908101604052809291908181526020018280546107a3906112e3565b80156107f05780601f106107c5576101008083540402835291602001916107f0565b820191906000526020600020905b8154815290600101906020018083116107d357829003601f168201915b50505050508152505081526020019060010190610538565b505050509050919050565b60008060009054906101000a900473ffffffffffffffffffffffffffffffffffffffff16905090565b818073ffffffffffffffffffffffffffffffffffffffff163373ffffffffffffffffffffffffffffffffffffffff16146108ab576040517f08c379a00000000000000000000000000000000000000000000000000000000081526004016108a290611294565b60405180910390fd5b600160008873ffffffffffffffffffffffffffffffffffffffff1673ffffffffffffffffffffffffffffffffffffffff1681526020019081526020016000206040518060a001604052808881526020018781526020018681526020018573ffffffffffffffffffffffffffffffffffffffff168152602001848152509080600181540180825580915050600190039060005260206000209060050201600090919091909150600082015181600001908051906020019061096c929190610a16565b506020820151816001019080519060200190610989929190610a16565b5060408201518160020190805190602001906109a6929190610a16565b5060608201518160030160006101000a81548173ffffffffffffffffffffffffffffffffffffffff021916908373ffffffffffffffffffffffffffffffffffffffff1602179055506080820151816004019080519060200190610a0a929190610a16565b50505050505050505050565b828054610a22906112e3565b90600052602060002090601f016020900481019282610a445760008555610a8b565b82601f10610a5d57805160ff1916838001178555610a8b565b82800160010185558215610a8b579182015b82811115610a8a578251825591602001919060010190610a6f565b5b509050610a989190610a9c565b5090565b5b80821115610ab5576000816000905550600101610a9d565b5090565b6000604051905090565b600080fd5b600080fd5b600073ffffffffffffffffffffffffffffffffffffffff82169050919050565b6000610af882610acd565b9050919050565b610b0881610aed565b8114610b1357600080fd5b50565b600081359050610b2581610aff565b92915050565b600080fd5b600080fd5b6000601f19601f8301169050919050565b7f4e487b7100000000000000000000000000000000000000000000000000000000600052604160045260246000fd5b610b7e82610b35565b810181811067ffffffffffffffff82111715610b9d57610b9c610b46565b5b80604052505050565b6000610bb0610ab9565b9050610bbc8282610b75565b919050565b600067ffffffffffffffff821115610bdc57610bdb610b46565b5b610be582610b35565b9050602081019050919050565b82818337600083830152505050565b6000610c14610c0f84610bc1565b610ba6565b905082815260208101848484011115610c3057610c2f610b30565b5b610c3b848285610bf2565b509392505050565b600082601f830112610c5857610c57610b2b565b5b8135610c68848260208601610c01565b91505092915050565b6000819050919050565b610c8481610c71565b8114610c8f57600080fd5b50565b600081359050610ca181610c7b565b92915050565b600080600080600060a08688031215610cc357610cc2610ac3565b5b6000610cd188828901610b16565b955050602086013567ffffffffffffffff811115610cf257610cf1610ac8565b5b610cfe88828901610c43565b9450506040610d0f88828901610b16565b935050606086013567ffffffffffffffff811115610d3057610d2f610ac8565b5b610d3c88828901610c43565b9250506080610d4d88828901610c92565b9150509295509295909350565b600060208284031215610d7057610d6f610ac3565b5b6000610d7e84828501610b16565b91505092915050565b600081519050919050565b600082825260208201905092915050565b6000819050602082019050919050565b600081519050919050565b600082825260208201905092915050565b60005b83811015610ded578082015181840152602081019050610dd2565b83811115610dfc576000848401525b50505050565b6000610e0d82610db3565b610e178185610dbe565b9350610e27818560208601610dcf565b610e3081610b35565b840191505092915050565b610e4481610aed565b82525050565b610e5381610c71565b82525050565b60006080830160008301518482036000860152610e768282610e02565b9150506020830151610e8b6020860182610e3b565b5060408301518482036040860152610ea38282610e02565b9150506060830151610eb86060860182610e4a565b508091505092915050565b6000610ecf8383610e59565b905092915050565b6000602082019050919050565b6000610eef82610d87565b610ef98185610d92565b935083602082028501610f0b85610da3565b8060005b85811015610f475784840389528151610f288582610ec3565b9450610f3383610ed7565b925060208a01995050600181019050610f0f565b50829750879550505050505092915050565b60006020820190508181036000830152610f738184610ee4565b905092915050565b600081519050919050565b600082825260208201905092915050565b6000819050602082019050919050565b600060a0830160008301518482036000860152610fc48282610e02565b91505060208301518482036020860152610fde8282610e02565b91505060408301518482036040860152610ff88282610e02565b915050606083015161100d6060860182610e3b565b50608083015184820360808601526110258282610e02565b9150508091505092915050565b600061103e8383610fa7565b905092915050565b6000602082019050919050565b600061105e82610f7b565b6110688185610f86565b93508360208202850161107a85610f97565b8060005b858110156110b657848403895281516110978582611032565b94506110a283611046565b925060208a0199505060018101905061107e565b50829750879550505050505092915050565b600060208201905081810360008301526110e28184611053565b905092915050565b6110f381610aed565b82525050565b600060208201905061110e60008301846110ea565b92915050565b60008060008060008060c0878903121561113157611130610ac3565b5b600061113f89828a01610b16565b965050602087013567ffffffffffffffff8111156111605761115f610ac8565b5b61116c89828a01610c43565b955050604087013567ffffffffffffffff81111561118d5761118c610ac8565b5b61119989828a01610c43565b945050606087013567ffffffffffffffff8111156111ba576111b9610ac8565b5b6111c689828a01610c43565b93505060806111d789828a01610b16565b92505060a087013567ffffffffffffffff8111156111f8576111f7610ac8565b5b61120489828a01610c43565b9150509295509295509295565b600082825260208201905092915050565b7f4f6e6c79207265676973746572656420646f63746f72732061726520616c6c6f60008201527f77656420746f206d6f6469667920646174610000000000000000000000000000602082015250565b600061127e603283611211565b915061128982611222565b604082019050919050565b600060208201905081810360008301526112ad81611271565b9050919050565b7f4e487b7100000000000000000000000000000000000000000000000000000000600052602260045260246000fd5b600060028204905060018216806112fb57607f821691505b6020821081141561130f5761130e6112b4565b5b5091905056fea2646970667358221220b304b8f144d29a4ff42914cf37c4e963f9dd344d61b951800a9afa5ae3c680f164736f6c634300080a0033",
  "immutableReferences": {},
  "source": "// SPDX-License-Identifier: MIT\r\npragma solidity >0.4.0 <0.9.0;\r\npragma experimental ABIEncoderV2;\r\n\r\ncontract doctorPage{\r\n    address admin;\r\n    constructor() {\r\n        admin = msg.sender;\r\n    }\r\n\r\n    function getAdmin() view public returns (address){\r\n        return admin;\r\n    }\r\n\r\n    struct doctorAddedFiles{\r\n        string fileName;\r\n        string fileType;\r\n        string fileId;\r\n        address doctorId;\r\n        string dateAdded;\r\n    }\r\n\r\n    struct doctorPrescription{\r\n        string medicine;\r\n        address doctorId;\r\n        string advice;\r\n        uint256 time;\r\n    }\r\n\r\n    modifier isDoctor(address doctor){\r\n        require(msg.sender == doctor, \"Only registered doctors are allowed to modify data\");\r\n        _;\r\n    }\r\n\r\n    mapping (address => doctorAddedFiles[]) patientFiles;\r\n    mapping (address => doctorPrescription[]) patientPrescription;\r\n    \r\n    function addPatientDetails(address _pat, string memory fname, string memory ftype, string memory fId, address docID, string memory date) public isDoctor(docID){\r\n        patientFiles[_pat].push(doctorAddedFiles({\r\n            fileName: fname,\r\n            fileType: ftype,\r\n            fileId: fId,\r\n            doctorId: docID,\r\n            dateAdded: date\r\n        }));\r\n    }\r\n\r\n    function getDoctorAddedFiles(address pat) view public returns (doctorAddedFiles[] memory){\r\n        return patientFiles[pat];\r\n    }\r\n\r\n    function addDoctorPrescription(address pat, string memory _medicine, address _doctorId, string memory _advice, uint256 _time) public isDoctor(_doctorId){\r\n        patientPrescription[pat].push(doctorPrescription({\r\n            medicine: _medicine,\r\n            doctorId: _doctorId,\r\n            advice: _advice,\r\n            time: _time\r\n        }));\r\n    }\r\n\r\n    function getPatientPrescription(address pat) view public returns(doctorPrescription[] memory){\r\n        return patientPrescription[pat];\r\n    }\r\n    \r\n}",
  "sourcePath": "C:\\Users\\haman\\OneDrive\\Desktop\\sampl\\contracts\\doctorPage.sol",
  "compiler": {
    "name": "solc",
    "version": "0.8.10+commit.fc410830.Emscripten.clang"
  },
  "schemaVersion": "3.4.16",
  "updatedAt": "2024-02-21T19:04:33.993Z",
  "networkType": "ethereum",
  "devdoc": {
    "kind": "dev",
    "methods": {},
    "version": 1
  },
  "userdoc": {
    "kind": "user",
    "methods": {},
    "version": 1
  }
}